S014000030325F4C45445F426C696E6B2E737265632B
S1130000E0240020710200006D0200006D02000077
S113001000000000000000000000000000000000DC
S11300200000000000000000000000006D0200005D
S113003000000000000000006D0200006D020000DE
S11300406D0200006D0200006D0200006D020000F0
S11300506D0200006D0200006D0200006D020000E0
S11300606D0200006D0200006D0200006D020000D0
S11300706D0300006D0200006D0200006D020000BF
S11300806D0200006D0200006D0200006D020000B0
S11300906D0200006D0200006D0200006D020000A0
S11300A06D0200006D0200006D0200006D02000090
S11300B00000000010B5064C2378002B07D1054B37
S11300C0002B02D0044800E000BF0123237010BDC0
S11300D03404002000000000C8080000084B10B5DC
S11300E0002B03D00749084800E000BF0748036815
S11300F0002B00D110BD064B002BFBD09847F9E72D
S11301000000000038040020C8080000C8080000EF
S11301100000000010B50F4B98470F4B802292024D
S11301201A600E490A605622995C012421439954AD
S11301303B215A5C0F208243022002435A54572029
S11301401A5C22431A54585C0F22024020200243B6
S11301505A5410BD610100000044004114440041A0
S1130160344A136A20210B431362334B1A6A33490E
S11301700A401A621A6A02210A431A62304A013199
S1130180FF3191602F4951602F4A9A829A8A022145
S11301900A439A821A00D3689B07FCD5284B022293
S11301A0FF329A60294A5A601A005378DB09FCD15D
S11301B0274A53681E218B431C390B435360822208
S11301C0D2011F4B5A801C4AD368DB06FCD502229D
S11301D0194B9A841A00D368DB06FCD51D4A164BCA
S11301E0DA621A00D368DB06FCD51B4B1A68124985
S11301F08B6A920E92021948034013438B620A00E1
S1130200D368DB06FCD50C4A938C15490B439384C5
S1130210D3681B06FCD5D3685B06F9D5114A084B95
S11302205A601A005378DB09FCD10F4A044B5A80F8
S11302307047C0460004004000080040FFFCFFFF78
S1130240000C0040020609000C07000001050B0029
S113025000400041B905FF7D24608000FF03FFFFDB
S11302600608000000070B0017400000FEE700002E
S1130270F8B52A4A2A4B9A4211D01A00294B9A42BD
S11302800DD2294A03339B1A9B0801339B00002299
S1130290234822498C58845004329A42FAD1234A82
S11302A0234B9A420AD2D34321495B1803218B433F
S11302B004339B18002102C29342FCD11D4AFF2142
S11302C01D4B8B439360FD3990235B001B4AD15037
S11302D01B4AD3780325AB4302242343D370D3783A
S11302E00C27BB4308263343D370164B987B30222C
S11302F09043202210439873997BB94331439973F7
S11303009A7BAA4322439A730F4A536880210B4372
S113031053600E4B98470E4B9847FEE7C808000001
S113032000000020340400200400002034040020D5
S1130330DC04002000ED00E000000000007000413B
S1130340005000410048004100400041E506000023
S11303505503000010B5034B9847E1204002024BBF
S11303609847FEE715010000D503000070B586B07C
S1130370134B1868134B1B8DDBB2134A13542A2BEF
S11303800AD0114BC0180121104B98470C4A13682E
S11303900133136006B070BD801801210B4CA047D7
S11303A00022074B1A6001A8094B020062CB62C20B
S11303B0196811601B7913711021A047EAE7C04640
S11303C05004002000140042540400209104000052
S11303D08408000070B580225201254B1A60254C18
S11303E023680225AB43236023681C229343183AF5
S11303F0134323602368204A1340236023681F4A61
S11304001A4080235B031343236023681C4A134070
S11304102360636807229343636022688023DB05BB
S1130420134323602368174A134023606368402200
S113043093436360144B1A680001101A010C000402
S11304400023124EB04780B2A081626880239B02D1
S113045013436360626880235B0213436360A37D7C
S113046004221343A37523681D43256070BDC04651
S113047000E100E000140042FFFFFFEFFFFFCFFFA9
S1130480FFFFFCFFFFFFFFF000000020CD04000091
S113049010B50D4B1B7EDB0700D410BD0029FCD02A
S11304A004000139C9B201314018074A138D21787B
S11304B05B0A5B020B431385137E9B07FCD5013457
S11304C08442F3D1E9E7C04600140042002B11D165
S11304D0002A0FD1002900D1002802D00021C943ED
S11304E0081C07B4024802A14018029003BDC0468C
S11304F09D01000003B4684601B5029800F006F8B7
S1130500019B9E4602B00CBC7047C046F0B55746EE
S11305104E464546DE46E0B5040083B00D009246E3
S113052099468B422FD82CD04946504600F0B0F85B
S113053029000600200000F0ABF8331A9846203B4F
S11305409B4600D574E053465A4693401F005346D9
S1130550424693401E00AF4229D826D05B46A41BD6
S1130560BD41002B00DA79E00022002300920193C0
S113057001235A469340019301234246934000933A
S113058019E08242D0D900220023009201930C9BEF
S1130590002B01D01C605D600098019903B03CBC45
S11305A090469946A246AB46F0BDA342D6D9002256
S11305B00023009201934346002BE8D0FB07720806
S11305C01A4346467B080EE0AB4201D1A2420CD846
S11305D0A41A9D41012024196D410021013E2418D3
S11305E04D41002E06D0AB42EED9013E24196D4197
S11305F0002EF8D15B460098019900196941002B3F
S113060022DB2B005A46D3402A004446E2401C0019
S11306105B461500002B2CDB26009E403300260091
S11306204746BE403200801A994100900191AEE7DE
S1130630424620239B1A5246DA40414613004A465A
S11306408A4017001F4382E7424620239B1A2A0050
S113065046469A402300F3401343D5E742462023FD
S113066000219B1A0022009101920122DA4001929A
S113067082E74246202326009B1ADE402F00B44620
S1130680974066463B003343C9E7C0467047C046BF
S113069010B5002903D100F007F8203002E0081C4F
S11306A000F002F810BDC0461C2101231B0498422F
S11306B001D3000C10391B0A984201D3000A0839EF
S11306C01B09984201D30009043902A2105C4018A6
S11306D07047C0460403020201010101000000004A
S11306E00000000070B50D4E0D4D0024AD1BAD1083
S11306F005D0A300F35801349847A542F9D100F07E
S1130700CDF8084E084D0024AD1BAD1005D0A30054
S1130710F35801349847A542F9D170BDA8080000E8
S1130720A8080000A8080000B0080000034B10B59A
S1130730002B02D0024800F005F810BD00000000B4
S11307405507000010B5010000230022002000F02E
S11307501FF810BD70B5094B094CE41AA41009D058
S1130760084AA518AD00ED182B68013C9847043DD4
S1130770002CF9D100F09CF870BDC046BC08000004
S1130780C0080000FFFFFF3F7047C0467047C046E7
S1130790F0B54E464546DE465746E0B5364D83B085
S11307A00600286898460F009146FFF7EDFF334B8B
S11307B01C68A4235B00E058002852D043681F2B18
S11307C013DC5A1C0192002E28D1019A02339B009B
S11307D042601F502868FFF7D9FF002003B03CBCDB
S11307E090469946A246AB46F0BD254B002B3DD022
S11307F0C820400000E000BF002837D0A422002316
S11308005200A15843600160A0504032835004322A
S11308108350013301930023002ED6D09A009246D0
S113082082444A46882154466250C422520091466A
S113083081444A468739994012688B460A43944654
S11308404A4661461160842241465200A150022E5C
S1130850BBD102005C468D32FF3211680C43146038
S1130860B3E720004D30FF30E050A7E72868FFF7DA
S11308708DFF01204042B1E73004002098080000B9
S113088000000000736F6E20646567657220676501
S11308906C64690D0000000008000020F8B5C04633
S11308A0F8BC08BC9E4670472D070000DD00000020
S11308B0F8B5C046F8BC08BC9E467047B5000000B9
S10B08C04CFCFF7F0100000065
S11308C8006CDC020000000000000000F4020020BC
S11308D85C030020C40300200000000000000000A6
S11308E800000000000000000000000000000000FC
S11308F800000000000000000000000000000000EC
S113090800000000000000000000000000000000DB
S113091800000000000000000000000000000000CB
S113092800000000000000000000000000000000BB
S113093800000000000000000000000000000000AB
S1130948000000000000000000000000000000009B
S1130958000000000000000000000000000000008B
S1130968000000000000000000000000000000007B
S113097801000000000000000E33CDAB34126DE618
S1130988ECDE05000B000000000000000000000081
S1130998000000000000000000000000000000004B
S11309A8000000000000000000000000000000003B
S11309B8000000000000000000000000000000002B
S11309C8000000000000000000000000000000001B
S1070CF8B804002018
S9030000FC
